{
  "contractName": "ElectionCommision",
  "abi": [
    {
      "anonymous": false,
      "inputs": [
        {
          "indexed": true,
          "internalType": "address",
          "name": "previousOwner",
          "type": "address"
        },
        {
          "indexed": true,
          "internalType": "address",
          "name": "newOwner",
          "type": "address"
        }
      ],
      "name": "OwnershipTransferred",
      "type": "event"
    },
    {
      "inputs": [],
      "name": "owner",
      "outputs": [
        {
          "internalType": "address",
          "name": "",
          "type": "address"
        }
      ],
      "stateMutability": "view",
      "type": "function"
    },
    {
      "inputs": [
        {
          "internalType": "uint256",
          "name": "",
          "type": "uint256"
        }
      ],
      "name": "politicalParties",
      "outputs": [
        {
          "internalType": "string",
          "name": "name",
          "type": "string"
        },
        {
          "internalType": "string",
          "name": "symbol",
          "type": "string"
        }
      ],
      "stateMutability": "view",
      "type": "function"
    },
    {
      "inputs": [],
      "name": "renounceOwnership",
      "outputs": [],
      "stateMutability": "nonpayable",
      "type": "function"
    },
    {
      "inputs": [
        {
          "internalType": "address",
          "name": "newOwner",
          "type": "address"
        }
      ],
      "name": "transferOwnership",
      "outputs": [],
      "stateMutability": "nonpayable",
      "type": "function"
    },
    {
      "inputs": [
        {
          "internalType": "string",
          "name": "_name",
          "type": "string"
        },
        {
          "internalType": "string",
          "name": "_symbol",
          "type": "string"
        }
      ],
      "name": "addParty",
      "outputs": [],
      "stateMutability": "nonpayable",
      "type": "function"
    },
    {
      "inputs": [],
      "name": "partiesCount",
      "outputs": [
        {
          "internalType": "uint256",
          "name": "",
          "type": "uint256"
        }
      ],
      "stateMutability": "view",
      "type": "function"
    }
  ],
  "bytecode": "0x608060405234801561001057600080fd5b5061002d61002261003260201b60201c565b61003a60201b60201c565b6100fe565b600033905090565b60008060009054906101000a900473ffffffffffffffffffffffffffffffffffffffff169050816000806101000a81548173ffffffffffffffffffffffffffffffffffffffff021916908373ffffffffffffffffffffffffffffffffffffffff1602179055508173ffffffffffffffffffffffffffffffffffffffff168173ffffffffffffffffffffffffffffffffffffffff167f8be0079c531659141344cd1fd0a4f28419497f9722a3daafe3b4186f6b6457e060405160405180910390a35050565b610be78061010d6000396000f3fe608060405234801561001057600080fd5b50600436106100625760003560e01c8063715018a61461006757806380f22892146100715780638da5cb5b146100a2578063c0015bf0146100c0578063c56a3540146100dc578063f2fde38b146100fa575b600080fd5b61006f610116565b005b61008b600480360381019061008691906106ca565b61019e565b604051610099929190610790565b60405180910390f35b6100aa6102e2565b6040516100b79190610808565b60405180910390f35b6100da60048036038101906100d59190610958565b61030b565b005b6100e461040d565b6040516100f191906109df565b60405180910390f35b610114600480360381019061010f9190610a26565b61041a565b005b61011e610511565b73ffffffffffffffffffffffffffffffffffffffff1661013c6102e2565b73ffffffffffffffffffffffffffffffffffffffff1614610192576040517f08c379a000000000000000000000000000000000000000000000000000000000815260040161018990610a9f565b60405180910390fd5b61019c6000610519565b565b600181815481106101ae57600080fd5b90600052602060002090600202016000915090508060000180546101d190610aee565b80601f01602080910402602001604051908101604052809291908181526020018280546101fd90610aee565b801561024a5780601f1061021f5761010080835404028352916020019161024a565b820191906000526020600020905b81548152906001019060200180831161022d57829003601f168201915b50505050509080600101805461025f90610aee565b80601f016020809104026020016040519081016040528092919081815260200182805461028b90610aee565b80156102d85780601f106102ad576101008083540402835291602001916102d8565b820191906000526020600020905b8154815290600101906020018083116102bb57829003601f168201915b5050505050905082565b60008060009054906101000a900473ffffffffffffffffffffffffffffffffffffffff16905090565b610313610511565b73ffffffffffffffffffffffffffffffffffffffff166103316102e2565b73ffffffffffffffffffffffffffffffffffffffff1614610387576040517f08c379a000000000000000000000000000000000000000000000000000000000815260040161037e90610a9f565b60405180910390fd5b60006040518060400160405280848152602001838152509050600181908060018154018082558091505060019003906000526020600020906002020160009091909190915060008201518160000190805190602001906103e89291906105dd565b5060208201518160010190805190602001906104059291906105dd565b505050505050565b6000600180549050905090565b610422610511565b73ffffffffffffffffffffffffffffffffffffffff166104406102e2565b73ffffffffffffffffffffffffffffffffffffffff1614610496576040517f08c379a000000000000000000000000000000000000000000000000000000000815260040161048d90610a9f565b60405180910390fd5b600073ffffffffffffffffffffffffffffffffffffffff168173ffffffffffffffffffffffffffffffffffffffff1603610505576040517f08c379a00000000000000000000000000000000000000000000000000000000081526004016104fc90610b91565b60405180910390fd5b61050e81610519565b50565b600033905090565b60008060009054906101000a900473ffffffffffffffffffffffffffffffffffffffff169050816000806101000a81548173ffffffffffffffffffffffffffffffffffffffff021916908373ffffffffffffffffffffffffffffffffffffffff1602179055508173ffffffffffffffffffffffffffffffffffffffff168173ffffffffffffffffffffffffffffffffffffffff167f8be0079c531659141344cd1fd0a4f28419497f9722a3daafe3b4186f6b6457e060405160405180910390a35050565b8280546105e990610aee565b90600052602060002090601f01602090048101928261060b5760008555610652565b82601f1061062457805160ff1916838001178555610652565b82800160010185558215610652579182015b82811115610651578251825591602001919060010190610636565b5b50905061065f9190610663565b5090565b5b8082111561067c576000816000905550600101610664565b5090565b6000604051905090565b600080fd5b600080fd5b6000819050919050565b6106a781610694565b81146106b257600080fd5b50565b6000813590506106c48161069e565b92915050565b6000602082840312156106e0576106df61068a565b5b60006106ee848285016106b5565b91505092915050565b600081519050919050565b600082825260208201905092915050565b60005b83811015610731578082015181840152602081019050610716565b83811115610740576000848401525b50505050565b6000601f19601f8301169050919050565b6000610762826106f7565b61076c8185610702565b935061077c818560208601610713565b61078581610746565b840191505092915050565b600060408201905081810360008301526107aa8185610757565b905081810360208301526107be8184610757565b90509392505050565b600073ffffffffffffffffffffffffffffffffffffffff82169050919050565b60006107f2826107c7565b9050919050565b610802816107e7565b82525050565b600060208201905061081d60008301846107f9565b92915050565b600080fd5b600080fd5b7f4e487b7100000000000000000000000000000000000000000000000000000000600052604160045260246000fd5b61086582610746565b810181811067ffffffffffffffff821117156108845761088361082d565b5b80604052505050565b6000610897610680565b90506108a3828261085c565b919050565b600067ffffffffffffffff8211156108c3576108c261082d565b5b6108cc82610746565b9050602081019050919050565b82818337600083830152505050565b60006108fb6108f6846108a8565b61088d565b90508281526020810184848401111561091757610916610828565b5b6109228482856108d9565b509392505050565b600082601f83011261093f5761093e610823565b5b813561094f8482602086016108e8565b91505092915050565b6000806040838503121561096f5761096e61068a565b5b600083013567ffffffffffffffff81111561098d5761098c61068f565b5b6109998582860161092a565b925050602083013567ffffffffffffffff8111156109ba576109b961068f565b5b6109c68582860161092a565b9150509250929050565b6109d981610694565b82525050565b60006020820190506109f460008301846109d0565b92915050565b610a03816107e7565b8114610a0e57600080fd5b50565b600081359050610a20816109fa565b92915050565b600060208284031215610a3c57610a3b61068a565b5b6000610a4a84828501610a11565b91505092915050565b7f4f776e61626c653a2063616c6c6572206973206e6f7420746865206f776e6572600082015250565b6000610a89602083610702565b9150610a9482610a53565b602082019050919050565b60006020820190508181036000830152610ab881610a7c565b9050919050565b7f4e487b7100000000000000000000000000000000000000000000000000000000600052602260045260246000fd5b60006002820490506001821680610b0657607f821691505b602082108103610b1957610b18610abf565b5b50919050565b7f4f776e61626c653a206e6577206f776e657220697320746865207a65726f206160008201527f6464726573730000000000000000000000000000000000000000000000000000602082015250565b6000610b7b602683610702565b9150610b8682610b1f565b604082019050919050565b60006020820190508181036000830152610baa81610b6e565b905091905056fea264697066735822122040a9d5aaa4e2086098998156da2fd879cb93632b45659965edbb40aa5154487e64736f6c634300080e0033",
  "immutableReferences": {},
  "source": "// SPDX-License-Identifier: MIT\npragma solidity ^0.8.14;\nimport \"@openzeppelin/contracts/access/Ownable.sol\";\n\nstruct PoliticalParty {\n    string name;\n    string symbol;\n}\n\ncontract ElectionCommision is Ownable {\n    PoliticalParty[] public politicalParties;\n\n    function addParty(string memory _name, string memory _symbol) external onlyOwner {\n        PoliticalParty memory party = PoliticalParty(_name, _symbol);\n        politicalParties.push(party);\n    }\n\n    function partiesCount() public view returns(uint256) {\n        return politicalParties.length;\n    }\n}\n\ncontract Voting is ElectionCommision {\n    mapping(uint256 => uint256) public partyVoteCount;\n    \n    function castVote(uint256 _partyId) public {\n        partyVoteCount[_partyId]++;\n    }\n}",
  "sourcePath": "/home/zaimabbasi/Developer/smart-voting-machine/src/contracts/Voting.sol",
  "compiler": {
    "name": "solc",
    "version": "0.8.14+commit.80d49f37.Emscripten.clang"
  },
  "schemaVersion": "3.4.4",
  "updatedAt": "2022-05-20T05:38:20.108Z",
  "devdoc": {
    "kind": "dev",
    "methods": {
      "owner()": {
        "details": "Returns the address of the current owner."
      },
      "renounceOwnership()": {
        "details": "Leaves the contract without owner. It will not be possible to call `onlyOwner` functions anymore. Can only be called by the current owner. NOTE: Renouncing ownership will leave the contract without an owner, thereby removing any functionality that is only available to the owner."
      },
      "transferOwnership(address)": {
        "details": "Transfers ownership of the contract to a new account (`newOwner`). Can only be called by the current owner."
      }
    },
    "version": 1
  },
  "userdoc": {
    "kind": "user",
    "methods": {},
    "version": 1
  }
}