{
  "contractName": "Voting",
  "abi": [
    {
      "inputs": [
        {
          "internalType": "uint256",
          "name": "_startTime",
          "type": "uint256"
        },
        {
          "internalType": "uint256",
          "name": "_endTime",
          "type": "uint256"
        }
      ],
      "stateMutability": "nonpayable",
      "type": "constructor"
    },
    {
      "anonymous": false,
      "inputs": [
        {
          "indexed": true,
          "internalType": "address",
          "name": "previousOwner",
          "type": "address"
        },
        {
          "indexed": true,
          "internalType": "address",
          "name": "newOwner",
          "type": "address"
        }
      ],
      "name": "OwnershipTransferred",
      "type": "event"
    },
    {
      "inputs": [],
      "name": "endTime",
      "outputs": [
        {
          "internalType": "uint256",
          "name": "",
          "type": "uint256"
        }
      ],
      "stateMutability": "view",
      "type": "function",
      "constant": true
    },
    {
      "inputs": [],
      "name": "owner",
      "outputs": [
        {
          "internalType": "address",
          "name": "",
          "type": "address"
        }
      ],
      "stateMutability": "view",
      "type": "function",
      "constant": true
    },
    {
      "inputs": [
        {
          "internalType": "uint256",
          "name": "",
          "type": "uint256"
        }
      ],
      "name": "politicalParties",
      "outputs": [
        {
          "internalType": "string",
          "name": "name",
          "type": "string"
        },
        {
          "internalType": "string",
          "name": "symbol",
          "type": "string"
        },
        {
          "internalType": "string",
          "name": "flagUrl",
          "type": "string"
        },
        {
          "internalType": "string",
          "name": "imageUrl",
          "type": "string"
        }
      ],
      "stateMutability": "view",
      "type": "function",
      "constant": true
    },
    {
      "inputs": [],
      "name": "renounceOwnership",
      "outputs": [],
      "stateMutability": "nonpayable",
      "type": "function"
    },
    {
      "inputs": [],
      "name": "startTime",
      "outputs": [
        {
          "internalType": "uint256",
          "name": "",
          "type": "uint256"
        }
      ],
      "stateMutability": "view",
      "type": "function",
      "constant": true
    },
    {
      "inputs": [
        {
          "internalType": "address",
          "name": "newOwner",
          "type": "address"
        }
      ],
      "name": "transferOwnership",
      "outputs": [],
      "stateMutability": "nonpayable",
      "type": "function"
    },
    {
      "inputs": [],
      "name": "viewResults",
      "outputs": [
        {
          "internalType": "uint256[]",
          "name": "",
          "type": "uint256[]"
        }
      ],
      "stateMutability": "view",
      "type": "function",
      "constant": true
    },
    {
      "inputs": [],
      "name": "getPoliticalParties",
      "outputs": [
        {
          "components": [
            {
              "internalType": "string",
              "name": "name",
              "type": "string"
            },
            {
              "internalType": "string",
              "name": "symbol",
              "type": "string"
            },
            {
              "internalType": "string",
              "name": "flagUrl",
              "type": "string"
            },
            {
              "internalType": "string",
              "name": "imageUrl",
              "type": "string"
            }
          ],
          "internalType": "struct Voting.PoliticalParty[]",
          "name": "",
          "type": "tuple[]"
        }
      ],
      "stateMutability": "view",
      "type": "function",
      "constant": true
    },
    {
      "inputs": [
        {
          "internalType": "string",
          "name": "_name",
          "type": "string"
        },
        {
          "internalType": "string",
          "name": "_symbol",
          "type": "string"
        },
        {
          "internalType": "string",
          "name": "_flagUrl",
          "type": "string"
        },
        {
          "internalType": "string",
          "name": "_imageUrl",
          "type": "string"
        }
      ],
      "name": "addParty",
      "outputs": [],
      "stateMutability": "nonpayable",
      "type": "function"
    },
    {
      "inputs": [
        {
          "internalType": "uint256",
          "name": "_partyId",
          "type": "uint256"
        }
      ],
      "name": "vote",
      "outputs": [],
      "stateMutability": "nonpayable",
      "type": "function"
    }
  ],
  "bytecode": "0x60806040523480156200001157600080fd5b5060405162001c4d38038062001c4d833981810160405281019062000037919062000179565b620000576200004b6200006d60201b60201c565b6200007560201b60201c565b81600281905550806003819055505050620001c0565b600033905090565b60008060009054906101000a900473ffffffffffffffffffffffffffffffffffffffff169050816000806101000a81548173ffffffffffffffffffffffffffffffffffffffff021916908373ffffffffffffffffffffffffffffffffffffffff1602179055508173ffffffffffffffffffffffffffffffffffffffff168173ffffffffffffffffffffffffffffffffffffffff167f8be0079c531659141344cd1fd0a4f28419497f9722a3daafe3b4186f6b6457e060405160405180910390a35050565b600080fd5b6000819050919050565b62000153816200013e565b81146200015f57600080fd5b50565b600081519050620001738162000148565b92915050565b6000806040838503121562000193576200019262000139565b5b6000620001a38582860162000162565b9250506020620001b68582860162000162565b9150509250929050565b611a7d80620001d06000396000f3fe608060405234801561001057600080fd5b506004361061009e5760003560e01c806380f228921161006657806380f22892146101215780638da5cb5b14610154578063d55ab09514610172578063f2fde38b14610190578063f59808ed146101ac5761009e565b80630121b93f146100a3578063154abdb7146100bf5780633197cbb6146100db578063715018a6146100f957806378e9792514610103575b600080fd5b6100bd60048036038101906100b89190610f8f565b6101ca565b005b6100d960048036038101906100d49190611102565b6103f7565b005b6100e3610541565b6040516100f091906111e8565b60405180910390f35b610101610547565b005b61010b6105cf565b60405161011891906111e8565b60405180910390f35b61013b60048036038101906101369190610f8f565b6105d5565b60405161014b949392919061128b565b60405180910390f35b61015c610835565b604051610169919061132d565b60405180910390f35b61017a61085e565b6040516101879190611406565b60405180910390f35b6101aa60048036038101906101a59190611454565b61099a565b005b6101b4610a91565b6040516101c19190611605565b60405180910390f35b806001805490508110610212576040517f08c379a000000000000000000000000000000000000000000000000000000000815260040161020990611673565b60405180910390fd5b600254421015610257576040517f08c379a000000000000000000000000000000000000000000000000000000000815260040161024e906116df565b60405180910390fd5b600354421061029b576040517f08c379a00000000000000000000000000000000000000000000000000000000081526004016102929061174b565b60405180910390fd5b60001515600560003373ffffffffffffffffffffffffffffffffffffffff1673ffffffffffffffffffffffffffffffffffffffff16815260200190815260200160002060009054906101000a900460ff1615151461032e576040517f08c379a0000000000000000000000000000000000000000000000000000000008152600401610325906117b7565b60405180910390fd5b60046000838152602001908152602001600020600081548092919061035290611806565b919050555081600660003373ffffffffffffffffffffffffffffffffffffffff1673ffffffffffffffffffffffffffffffffffffffff168152602001908152602001600020819055506001600560003373ffffffffffffffffffffffffffffffffffffffff1673ffffffffffffffffffffffffffffffffffffffff16815260200190815260200160002060006101000a81548160ff0219169083151502179055505050565b6103ff610dae565b73ffffffffffffffffffffffffffffffffffffffff1661041d610835565b73ffffffffffffffffffffffffffffffffffffffff1614610473576040517f08c379a000000000000000000000000000000000000000000000000000000000815260040161046a9061189a565b60405180910390fd5b60006040518060800160405280868152602001858152602001848152602001838152509050600181908060018154018082558091505060019003906000526020600020906004020160009091909190915060008201518160000190805190602001906104e0929190610e7a565b5060208201518160010190805190602001906104fd929190610e7a565b50604082015181600201908051906020019061051a929190610e7a565b506060820151816003019080519060200190610537929190610e7a565b5050505050505050565b60035481565b61054f610dae565b73ffffffffffffffffffffffffffffffffffffffff1661056d610835565b73ffffffffffffffffffffffffffffffffffffffff16146105c3576040517f08c379a00000000000000000000000000000000000000000000000000000000081526004016105ba9061189a565b60405180910390fd5b6105cd6000610db6565b565b60025481565b600181815481106105e557600080fd5b9060005260206000209060040201600091509050806000018054610608906118e9565b80601f0160208091040260200160405190810160405280929190818152602001828054610634906118e9565b80156106815780601f1061065657610100808354040283529160200191610681565b820191906000526020600020905b81548152906001019060200180831161066457829003601f168201915b505050505090806001018054610696906118e9565b80601f01602080910402602001604051908101604052809291908181526020018280546106c2906118e9565b801561070f5780601f106106e45761010080835404028352916020019161070f565b820191906000526020600020905b8154815290600101906020018083116106f257829003601f168201915b505050505090806002018054610724906118e9565b80601f0160208091040260200160405190810160405280929190818152602001828054610750906118e9565b801561079d5780601f106107725761010080835404028352916020019161079d565b820191906000526020600020905b81548152906001019060200180831161078057829003601f168201915b5050505050908060030180546107b2906118e9565b80601f01602080910402602001604051908101604052809291908181526020018280546107de906118e9565b801561082b5780601f106108005761010080835404028352916020019161082b565b820191906000526020600020905b81548152906001019060200180831161080e57829003601f168201915b5050505050905084565b60008060009054906101000a900473ffffffffffffffffffffffffffffffffffffffff16905090565b60606002544210156108a5576040517f08c379a000000000000000000000000000000000000000000000000000000000815260040161089c906116df565b60405180910390fd5b6003544210156108ea576040517f08c379a00000000000000000000000000000000000000000000000000000000081526004016108e190611966565b60405180910390fd5b600060018054905067ffffffffffffffff81111561090b5761090a610fd7565b5b6040519080825280602002602001820160405280156109395781602001602082028036833780820191505090505b50905060005b60018054905081101561099257600460008281526020019081526020016000205482828151811061097357610972611986565b5b602002602001018181525050808061098a90611806565b91505061093f565b508091505090565b6109a2610dae565b73ffffffffffffffffffffffffffffffffffffffff166109c0610835565b73ffffffffffffffffffffffffffffffffffffffff1614610a16576040517f08c379a0000000000000000000000000000000000000000000000000000000008152600401610a0d9061189a565b60405180910390fd5b600073ffffffffffffffffffffffffffffffffffffffff168173ffffffffffffffffffffffffffffffffffffffff1603610a85576040517f08c379a0000000000000000000000000000000000000000000000000000000008152600401610a7c90611a27565b60405180910390fd5b610a8e81610db6565b50565b6060600060018054905067ffffffffffffffff811115610ab457610ab3610fd7565b5b604051908082528060200260200182016040528015610aed57816020015b610ada610f00565b815260200190600190039081610ad25790505b50905060005b600180549050811015610da65760018181548110610b1457610b13611986565b5b9060005260206000209060040201604051806080016040529081600082018054610b3d906118e9565b80601f0160208091040260200160405190810160405280929190818152602001828054610b69906118e9565b8015610bb65780601f10610b8b57610100808354040283529160200191610bb6565b820191906000526020600020905b815481529060010190602001808311610b9957829003601f168201915b50505050508152602001600182018054610bcf906118e9565b80601f0160208091040260200160405190810160405280929190818152602001828054610bfb906118e9565b8015610c485780601f10610c1d57610100808354040283529160200191610c48565b820191906000526020600020905b815481529060010190602001808311610c2b57829003601f168201915b50505050508152602001600282018054610c61906118e9565b80601f0160208091040260200160405190810160405280929190818152602001828054610c8d906118e9565b8015610cda5780601f10610caf57610100808354040283529160200191610cda565b820191906000526020600020905b815481529060010190602001808311610cbd57829003601f168201915b50505050508152602001600382018054610cf3906118e9565b80601f0160208091040260200160405190810160405280929190818152602001828054610d1f906118e9565b8015610d6c5780601f10610d4157610100808354040283529160200191610d6c565b820191906000526020600020905b815481529060010190602001808311610d4f57829003601f168201915b505050505081525050828281518110610d8857610d87611986565b5b60200260200101819052508080610d9e90611806565b915050610af3565b508091505090565b600033905090565b60008060009054906101000a900473ffffffffffffffffffffffffffffffffffffffff169050816000806101000a81548173ffffffffffffffffffffffffffffffffffffffff021916908373ffffffffffffffffffffffffffffffffffffffff1602179055508173ffffffffffffffffffffffffffffffffffffffff168173ffffffffffffffffffffffffffffffffffffffff167f8be0079c531659141344cd1fd0a4f28419497f9722a3daafe3b4186f6b6457e060405160405180910390a35050565b828054610e86906118e9565b90600052602060002090601f016020900481019282610ea85760008555610eef565b82601f10610ec157805160ff1916838001178555610eef565b82800160010185558215610eef579182015b82811115610eee578251825591602001919060010190610ed3565b5b509050610efc9190610f28565b5090565b6040518060800160405280606081526020016060815260200160608152602001606081525090565b5b80821115610f41576000816000905550600101610f29565b5090565b6000604051905090565b600080fd5b600080fd5b6000819050919050565b610f6c81610f59565b8114610f7757600080fd5b50565b600081359050610f8981610f63565b92915050565b600060208284031215610fa557610fa4610f4f565b5b6000610fb384828501610f7a565b91505092915050565b600080fd5b600080fd5b6000601f19601f8301169050919050565b7f4e487b7100000000000000000000000000000000000000000000000000000000600052604160045260246000fd5b61100f82610fc6565b810181811067ffffffffffffffff8211171561102e5761102d610fd7565b5b80604052505050565b6000611041610f45565b905061104d8282611006565b919050565b600067ffffffffffffffff82111561106d5761106c610fd7565b5b61107682610fc6565b9050602081019050919050565b82818337600083830152505050565b60006110a56110a084611052565b611037565b9050828152602081018484840111156110c1576110c0610fc1565b5b6110cc848285611083565b509392505050565b600082601f8301126110e9576110e8610fbc565b5b81356110f9848260208601611092565b91505092915050565b6000806000806080858703121561111c5761111b610f4f565b5b600085013567ffffffffffffffff81111561113a57611139610f54565b5b611146878288016110d4565b945050602085013567ffffffffffffffff81111561116757611166610f54565b5b611173878288016110d4565b935050604085013567ffffffffffffffff81111561119457611193610f54565b5b6111a0878288016110d4565b925050606085013567ffffffffffffffff8111156111c1576111c0610f54565b5b6111cd878288016110d4565b91505092959194509250565b6111e281610f59565b82525050565b60006020820190506111fd60008301846111d9565b92915050565b600081519050919050565b600082825260208201905092915050565b60005b8381101561123d578082015181840152602081019050611222565b8381111561124c576000848401525b50505050565b600061125d82611203565b611267818561120e565b935061127781856020860161121f565b61128081610fc6565b840191505092915050565b600060808201905081810360008301526112a58187611252565b905081810360208301526112b98186611252565b905081810360408301526112cd8185611252565b905081810360608301526112e18184611252565b905095945050505050565b600073ffffffffffffffffffffffffffffffffffffffff82169050919050565b6000611317826112ec565b9050919050565b6113278161130c565b82525050565b6000602082019050611342600083018461131e565b92915050565b600081519050919050565b600082825260208201905092915050565b6000819050602082019050919050565b61137d81610f59565b82525050565b600061138f8383611374565b60208301905092915050565b6000602082019050919050565b60006113b382611348565b6113bd8185611353565b93506113c883611364565b8060005b838110156113f95781516113e08882611383565b97506113eb8361139b565b9250506001810190506113cc565b5085935050505092915050565b6000602082019050818103600083015261142081846113a8565b905092915050565b6114318161130c565b811461143c57600080fd5b50565b60008135905061144e81611428565b92915050565b60006020828403121561146a57611469610f4f565b5b60006114788482850161143f565b91505092915050565b600081519050919050565b600082825260208201905092915050565b6000819050602082019050919050565b600082825260208201905092915050565b60006114c982611203565b6114d381856114ad565b93506114e381856020860161121f565b6114ec81610fc6565b840191505092915050565b6000608083016000830151848203600086015261151482826114be565b9150506020830151848203602086015261152e82826114be565b9150506040830151848203604086015261154882826114be565b9150506060830151848203606086015261156282826114be565b9150508091505092915050565b600061157b83836114f7565b905092915050565b6000602082019050919050565b600061159b82611481565b6115a5818561148c565b9350836020820285016115b78561149d565b8060005b858110156115f357848403895281516115d4858261156f565b94506115df83611583565b925060208a019950506001810190506115bb565b50829750879550505050505092915050565b6000602082019050818103600083015261161f8184611590565b905092915050565b7f506172747920494420697320696e76616c696421000000000000000000000000600082015250565b600061165d60148361120e565b915061166882611627565b602082019050919050565b6000602082019050818103600083015261168c81611650565b9050919050565b7f566f74696e6720686173206e6f74207374617274656421000000000000000000600082015250565b60006116c960178361120e565b91506116d482611693565b602082019050919050565b600060208201905081810360008301526116f8816116bc565b9050919050565b7f566f74696e672074696d65206973206f76657221000000000000000000000000600082015250565b600061173560148361120e565b9150611740826116ff565b602082019050919050565b6000602082019050818103600083015261176481611728565b9050919050565b7f43616e20766f7465206f6e6c79206f6e63652100000000000000000000000000600082015250565b60006117a160138361120e565b91506117ac8261176b565b602082019050919050565b600060208201905081810360008301526117d081611794565b9050919050565b7f4e487b7100000000000000000000000000000000000000000000000000000000600052601160045260246000fd5b600061181182610f59565b91507fffffffffffffffffffffffffffffffffffffffffffffffffffffffffffffffff8203611843576118426117d7565b5b600182019050919050565b7f4f776e61626c653a2063616c6c6572206973206e6f7420746865206f776e6572600082015250565b600061188460208361120e565b915061188f8261184e565b602082019050919050565b600060208201905081810360008301526118b381611877565b9050919050565b7f4e487b7100000000000000000000000000000000000000000000000000000000600052602260045260246000fd5b6000600282049050600182168061190157607f821691505b602082108103611914576119136118ba565b5b50919050565b7f566f74696e672074696d65206973206e6f74206f766572210000000000000000600082015250565b600061195060188361120e565b915061195b8261191a565b602082019050919050565b6000602082019050818103600083015261197f81611943565b9050919050565b7f4e487b7100000000000000000000000000000000000000000000000000000000600052603260045260246000fd5b7f4f776e61626c653a206e6577206f776e657220697320746865207a65726f206160008201527f6464726573730000000000000000000000000000000000000000000000000000602082015250565b6000611a1160268361120e565b9150611a1c826119b5565b604082019050919050565b60006020820190508181036000830152611a4081611a04565b905091905056fea2646970667358221220054c28301ab631629e332f99e00884af62cf69cac2e07c212f524a2bfe274cd664736f6c634300080e0033",
  "immutableReferences": {},
  "source": "// SPDX-License-Identifier: MIT\npragma solidity ^0.8.14;\n\nimport \"@openzeppelin/contracts/access/Ownable.sol\";\n\ncontract Voting is Ownable {\n    struct PoliticalParty {\n        string name;\n        string symbol;\n        string flagUrl;\n        string imageUrl;\n    }\n\n    PoliticalParty[] public politicalParties;\n    uint256 public startTime;\n    uint256 public endTime;\n    mapping(uint256 => uint256) partyVoteCount;\n    mapping(address => bool) citizenVoted;\n    mapping(address => uint256) citizenVotedParty;\n\n    constructor(uint256 _startTime, uint256 _endTime) {\n        startTime = _startTime;\n        endTime = _endTime;\n    }\n\n    modifier onlyOnce {\n        require(citizenVoted[msg.sender] == false, \"Can vote only once!\");\n        _;\n    }\n\n    modifier whileVoting {\n        require(block.timestamp >= startTime, \"Voting has not started!\");\n        require(block.timestamp < endTime, \"Voting time is over!\");\n        _;\n    }\n\n    modifier validPartyId(uint256 _partyId) {\n        require(_partyId < politicalParties.length, \"Party ID is invalid!\");\n        _;\n    }\n\n    modifier votingComplete {\n        require(block.timestamp >= startTime, \"Voting has not started!\");\n        require(block.timestamp >= endTime, \"Voting time is not over!\");\n        _;\n    }\n\n    function viewResults() external view votingComplete returns (uint256[] memory) {\n        uint256[] memory results = new uint256[](politicalParties.length);\n\n        for (uint256 i = 0; i < politicalParties.length; i++)\n            results[i] = partyVoteCount[i];\n\n        return results;\n    }\n\n    function getPoliticalParties() external view returns (PoliticalParty[] memory) {\n        PoliticalParty[] memory parties = new PoliticalParty[](politicalParties.length);\n\n        for (uint256 i = 0; i < politicalParties.length; i++)\n            parties[i] = politicalParties[i];\n\n        return parties;\n    }\n\n    function addParty(\n        string memory _name,\n        string memory _symbol,\n        string memory _flagUrl,\n        string memory _imageUrl\n    )\n        external\n        onlyOwner\n    {\n        PoliticalParty memory party = PoliticalParty(_name, _symbol, _flagUrl, _imageUrl);\n        politicalParties.push(party);\n    }\n\n    function vote(uint256 _partyId) external validPartyId(_partyId) whileVoting onlyOnce {\n        partyVoteCount[_partyId]++;\n        citizenVotedParty[msg.sender] = _partyId;\n        citizenVoted[msg.sender] = true;\n    }\n}",
  "sourcePath": "/home/zaimabbasi/Developer/smart-voting-machine/src/contracts/Voting.sol",
  "compiler": {
    "name": "solc",
    "version": "0.8.14+commit.80d49f37.Emscripten.clang"
  },
  "schemaVersion": "3.4.4",
  "updatedAt": "2022-06-22T06:29:19.104Z",
  "networkType": "ethereum",
  "devdoc": {
    "kind": "dev",
    "methods": {
      "owner()": {
        "details": "Returns the address of the current owner."
      },
      "renounceOwnership()": {
        "details": "Leaves the contract without owner. It will not be possible to call `onlyOwner` functions anymore. Can only be called by the current owner. NOTE: Renouncing ownership will leave the contract without an owner, thereby removing any functionality that is only available to the owner."
      },
      "transferOwnership(address)": {
        "details": "Transfers ownership of the contract to a new account (`newOwner`). Can only be called by the current owner."
      }
    },
    "version": 1
  },
  "userdoc": {
    "kind": "user",
    "methods": {},
    "version": 1
  }
}