{
  "contractName": "Voting",
  "abi": [
    {
      "inputs": [
        {
          "internalType": "uint32",
          "name": "_startTime",
          "type": "uint32"
        },
        {
          "internalType": "uint32",
          "name": "_endTime",
          "type": "uint32"
        }
      ],
      "stateMutability": "nonpayable",
      "type": "constructor"
    },
    {
      "anonymous": false,
      "inputs": [
        {
          "indexed": true,
          "internalType": "address",
          "name": "previousOwner",
          "type": "address"
        },
        {
          "indexed": true,
          "internalType": "address",
          "name": "newOwner",
          "type": "address"
        }
      ],
      "name": "OwnershipTransferred",
      "type": "event"
    },
    {
      "inputs": [],
      "name": "endTime",
      "outputs": [
        {
          "internalType": "uint32",
          "name": "",
          "type": "uint32"
        }
      ],
      "stateMutability": "view",
      "type": "function",
      "constant": true
    },
    {
      "inputs": [],
      "name": "owner",
      "outputs": [
        {
          "internalType": "address",
          "name": "",
          "type": "address"
        }
      ],
      "stateMutability": "view",
      "type": "function",
      "constant": true
    },
    {
      "inputs": [],
      "name": "renounceOwnership",
      "outputs": [],
      "stateMutability": "nonpayable",
      "type": "function"
    },
    {
      "inputs": [],
      "name": "startTime",
      "outputs": [
        {
          "internalType": "uint32",
          "name": "",
          "type": "uint32"
        }
      ],
      "stateMutability": "view",
      "type": "function",
      "constant": true
    },
    {
      "inputs": [
        {
          "internalType": "address",
          "name": "newOwner",
          "type": "address"
        }
      ],
      "name": "transferOwnership",
      "outputs": [],
      "stateMutability": "nonpayable",
      "type": "function"
    },
    {
      "inputs": [],
      "name": "getCitizenVote",
      "outputs": [
        {
          "internalType": "uint8",
          "name": "",
          "type": "uint8"
        }
      ],
      "stateMutability": "view",
      "type": "function",
      "constant": true
    },
    {
      "inputs": [],
      "name": "getResults",
      "outputs": [
        {
          "internalType": "uint256[]",
          "name": "",
          "type": "uint256[]"
        }
      ],
      "stateMutability": "view",
      "type": "function",
      "constant": true
    },
    {
      "inputs": [],
      "name": "getPoliticalParties",
      "outputs": [
        {
          "components": [
            {
              "internalType": "string",
              "name": "name",
              "type": "string"
            },
            {
              "internalType": "string",
              "name": "symbol",
              "type": "string"
            }
          ],
          "internalType": "struct Voting.PoliticalParty[]",
          "name": "",
          "type": "tuple[]"
        }
      ],
      "stateMutability": "view",
      "type": "function",
      "constant": true
    },
    {
      "inputs": [
        {
          "internalType": "string",
          "name": "_name",
          "type": "string"
        },
        {
          "internalType": "string",
          "name": "_symbol",
          "type": "string"
        }
      ],
      "name": "addParty",
      "outputs": [],
      "stateMutability": "nonpayable",
      "type": "function"
    },
    {
      "inputs": [
        {
          "internalType": "uint8",
          "name": "_partyId",
          "type": "uint8"
        }
      ],
      "name": "vote",
      "outputs": [],
      "stateMutability": "nonpayable",
      "type": "function"
    }
  ],
  "bytecode": "0x60806040523480156200001157600080fd5b506040516200188e3803806200188e8339818101604052810190620000379190620001b3565b620000576200004b620000a160201b60201c565b620000a960201b60201c565b81600260006101000a81548163ffffffff021916908363ffffffff16021790555080600260046101000a81548163ffffffff021916908363ffffffff1602179055505050620001fa565b600033905090565b60008060009054906101000a900473ffffffffffffffffffffffffffffffffffffffff169050816000806101000a81548173ffffffffffffffffffffffffffffffffffffffff021916908373ffffffffffffffffffffffffffffffffffffffff1602179055508173ffffffffffffffffffffffffffffffffffffffff168173ffffffffffffffffffffffffffffffffffffffff167f8be0079c531659141344cd1fd0a4f28419497f9722a3daafe3b4186f6b6457e060405160405180910390a35050565b600080fd5b600063ffffffff82169050919050565b6200018d8162000172565b81146200019957600080fd5b50565b600081519050620001ad8162000182565b92915050565b60008060408385031215620001cd57620001cc6200016d565b5b6000620001dd858286016200019c565b9250506020620001f0858286016200019c565b9150509250929050565b611684806200020a6000396000f3fe608060405234801561001057600080fd5b506004361061009e5760003560e01c80638da5cb5b116100665780638da5cb5b14610125578063b3f98adc14610143578063c0015bf01461015f578063f2fde38b1461017b578063f59808ed146101975761009e565b80633197cbb6146100a35780634517ae61146100c15780634717f97c146100df578063715018a6146100fd57806378e9792514610107575b600080fd5b6100ab6101b5565b6040516100b89190610bf4565b60405180910390f35b6100c96101cb565b6040516100d69190610c2b565b60405180910390f35b6100e761021f565b6040516100f49190610d0e565b60405180910390f35b6101056103a2565b005b61010f61042a565b60405161011c9190610bf4565b60405180910390f35b61012d610440565b60405161013a9190610d71565b60405180910390f35b61015d60048036038101906101589190610dcc565b610469565b005b61017960048036038101906101749190610f3f565b610651565b005b61019560048036038101906101909190610fe3565b610753565b005b61019f61084a565b6040516101ac919061119e565b60405180910390f35b600260049054906101000a900463ffffffff1681565b6000600460003373ffffffffffffffffffffffffffffffffffffffff1673ffffffffffffffffffffffffffffffffffffffff16815260200190815260200160002060009054906101000a900460ff16905090565b6060600260009054906101000a900463ffffffff1663ffffffff1642101561027c576040517f08c379a00000000000000000000000000000000000000000000000000000000081526004016102739061121d565b60405180910390fd5b600260049054906101000a900463ffffffff1663ffffffff164210156102d7576040517f08c379a00000000000000000000000000000000000000000000000000000000081526004016102ce90611289565b60405180910390fd5b600060018054905067ffffffffffffffff8111156102f8576102f7610e14565b5b6040519080825280602002602001820160405280156103265781602001602082028036833780820191505090505b5090506000600190505b6001805490508160ff161161039a57600360008260ff1660ff168152602001908152602001600020548260018361036791906112d8565b60ff168151811061037b5761037a61130c565b5b60200260200101818152505080806103929061133b565b915050610330565b508091505090565b6103aa610a4c565b73ffffffffffffffffffffffffffffffffffffffff166103c8610440565b73ffffffffffffffffffffffffffffffffffffffff161461041e576040517f08c379a0000000000000000000000000000000000000000000000000000000008152600401610415906113b0565b60405180910390fd5b6104286000610a54565b565b600260009054906101000a900463ffffffff1681565b60008060009054906101000a900473ffffffffffffffffffffffffffffffffffffffff16905090565b8060008160ff1611801561048557506001805490508160ff1611155b6104c4576040517f08c379a00000000000000000000000000000000000000000000000000000000081526004016104bb9061141c565b60405180910390fd5b600260009054906101000a900463ffffffff1663ffffffff1642101561051f576040517f08c379a00000000000000000000000000000000000000000000000000000000081526004016105169061121d565b60405180910390fd5b600260049054906101000a900463ffffffff1663ffffffff164210610579576040517f08c379a000000000000000000000000000000000000000000000000000000000815260040161057090611488565b60405180910390fd5b60006105836101cb565b60ff16146105c6576040517f08c379a00000000000000000000000000000000000000000000000000000000081526004016105bd906114f4565b60405180910390fd5b600360008360ff1660ff16815260200190815260200160002060008154809291906105f090611514565b919050555081600460003373ffffffffffffffffffffffffffffffffffffffff1673ffffffffffffffffffffffffffffffffffffffff16815260200190815260200160002060006101000a81548160ff021916908360ff1602179055505050565b610659610a4c565b73ffffffffffffffffffffffffffffffffffffffff16610677610440565b73ffffffffffffffffffffffffffffffffffffffff16146106cd576040517f08c379a00000000000000000000000000000000000000000000000000000000081526004016106c4906113b0565b60405180910390fd5b600060405180604001604052808481526020018381525090506001819080600181540180825580915050600190039060005260206000209060020201600090919091909150600082015181600001908051906020019061072e929190610b18565b50602082015181600101908051906020019061074b929190610b18565b505050505050565b61075b610a4c565b73ffffffffffffffffffffffffffffffffffffffff16610779610440565b73ffffffffffffffffffffffffffffffffffffffff16146107cf576040517f08c379a00000000000000000000000000000000000000000000000000000000081526004016107c6906113b0565b60405180910390fd5b600073ffffffffffffffffffffffffffffffffffffffff168173ffffffffffffffffffffffffffffffffffffffff160361083e576040517f08c379a0000000000000000000000000000000000000000000000000000000008152600401610835906115ce565b60405180910390fd5b61084781610a54565b50565b6060600060018054905067ffffffffffffffff81111561086d5761086c610e14565b5b6040519080825280602002602001820160405280156108a657816020015b610893610b9e565b81526020019060019003908161088b5790505b50905060005b6001805490508160ff161015610a445760018160ff16815481106108d3576108d261130c565b5b90600052602060002090600202016040518060400160405290816000820180546108fc9061161d565b80601f01602080910402602001604051908101604052809291908181526020018280546109289061161d565b80156109755780601f1061094a57610100808354040283529160200191610975565b820191906000526020600020905b81548152906001019060200180831161095857829003601f168201915b5050505050815260200160018201805461098e9061161d565b80601f01602080910402602001604051908101604052809291908181526020018280546109ba9061161d565b8015610a075780601f106109dc57610100808354040283529160200191610a07565b820191906000526020600020905b8154815290600101906020018083116109ea57829003601f168201915b505050505081525050828260ff1681518110610a2657610a2561130c565b5b60200260200101819052508080610a3c9061133b565b9150506108ac565b508091505090565b600033905090565b60008060009054906101000a900473ffffffffffffffffffffffffffffffffffffffff169050816000806101000a81548173ffffffffffffffffffffffffffffffffffffffff021916908373ffffffffffffffffffffffffffffffffffffffff1602179055508173ffffffffffffffffffffffffffffffffffffffff168173ffffffffffffffffffffffffffffffffffffffff167f8be0079c531659141344cd1fd0a4f28419497f9722a3daafe3b4186f6b6457e060405160405180910390a35050565b828054610b249061161d565b90600052602060002090601f016020900481019282610b465760008555610b8d565b82601f10610b5f57805160ff1916838001178555610b8d565b82800160010185558215610b8d579182015b82811115610b8c578251825591602001919060010190610b71565b5b509050610b9a9190610bb8565b5090565b604051806040016040528060608152602001606081525090565b5b80821115610bd1576000816000905550600101610bb9565b5090565b600063ffffffff82169050919050565b610bee81610bd5565b82525050565b6000602082019050610c096000830184610be5565b92915050565b600060ff82169050919050565b610c2581610c0f565b82525050565b6000602082019050610c406000830184610c1c565b92915050565b600081519050919050565b600082825260208201905092915050565b6000819050602082019050919050565b6000819050919050565b610c8581610c72565b82525050565b6000610c978383610c7c565b60208301905092915050565b6000602082019050919050565b6000610cbb82610c46565b610cc58185610c51565b9350610cd083610c62565b8060005b83811015610d01578151610ce88882610c8b565b9750610cf383610ca3565b925050600181019050610cd4565b5085935050505092915050565b60006020820190508181036000830152610d288184610cb0565b905092915050565b600073ffffffffffffffffffffffffffffffffffffffff82169050919050565b6000610d5b82610d30565b9050919050565b610d6b81610d50565b82525050565b6000602082019050610d866000830184610d62565b92915050565b6000604051905090565b600080fd5b600080fd5b610da981610c0f565b8114610db457600080fd5b50565b600081359050610dc681610da0565b92915050565b600060208284031215610de257610de1610d96565b5b6000610df084828501610db7565b91505092915050565b600080fd5b600080fd5b6000601f19601f8301169050919050565b7f4e487b7100000000000000000000000000000000000000000000000000000000600052604160045260246000fd5b610e4c82610e03565b810181811067ffffffffffffffff82111715610e6b57610e6a610e14565b5b80604052505050565b6000610e7e610d8c565b9050610e8a8282610e43565b919050565b600067ffffffffffffffff821115610eaa57610ea9610e14565b5b610eb382610e03565b9050602081019050919050565b82818337600083830152505050565b6000610ee2610edd84610e8f565b610e74565b905082815260208101848484011115610efe57610efd610dfe565b5b610f09848285610ec0565b509392505050565b600082601f830112610f2657610f25610df9565b5b8135610f36848260208601610ecf565b91505092915050565b60008060408385031215610f5657610f55610d96565b5b600083013567ffffffffffffffff811115610f7457610f73610d9b565b5b610f8085828601610f11565b925050602083013567ffffffffffffffff811115610fa157610fa0610d9b565b5b610fad85828601610f11565b9150509250929050565b610fc081610d50565b8114610fcb57600080fd5b50565b600081359050610fdd81610fb7565b92915050565b600060208284031215610ff957610ff8610d96565b5b600061100784828501610fce565b91505092915050565b600081519050919050565b600082825260208201905092915050565b6000819050602082019050919050565b600081519050919050565b600082825260208201905092915050565b60005b8381101561107657808201518184015260208101905061105b565b83811115611085576000848401525b50505050565b60006110968261103c565b6110a08185611047565b93506110b0818560208601611058565b6110b981610e03565b840191505092915050565b600060408301600083015184820360008601526110e1828261108b565b915050602083015184820360208601526110fb828261108b565b9150508091505092915050565b600061111483836110c4565b905092915050565b6000602082019050919050565b600061113482611010565b61113e818561101b565b9350836020820285016111508561102c565b8060005b8581101561118c578484038952815161116d8582611108565b94506111788361111c565b925060208a01995050600181019050611154565b50829750879550505050505092915050565b600060208201905081810360008301526111b88184611129565b905092915050565b600082825260208201905092915050565b7f566f74696e6720686173206e6f74207374617274656421000000000000000000600082015250565b60006112076017836111c0565b9150611212826111d1565b602082019050919050565b60006020820190508181036000830152611236816111fa565b9050919050565b7f566f74696e672074696d65206973206e6f74206f766572210000000000000000600082015250565b60006112736018836111c0565b915061127e8261123d565b602082019050919050565b600060208201905081810360008301526112a281611266565b9050919050565b7f4e487b7100000000000000000000000000000000000000000000000000000000600052601160045260246000fd5b60006112e382610c0f565b91506112ee83610c0f565b925082821015611301576113006112a9565b5b828203905092915050565b7f4e487b7100000000000000000000000000000000000000000000000000000000600052603260045260246000fd5b600061134682610c0f565b915060ff8203611359576113586112a9565b5b600182019050919050565b7f4f776e61626c653a2063616c6c6572206973206e6f7420746865206f776e6572600082015250565b600061139a6020836111c0565b91506113a582611364565b602082019050919050565b600060208201905081810360008301526113c98161138d565b9050919050565b7f506172747920494420697320696e76616c696421000000000000000000000000600082015250565b60006114066014836111c0565b9150611411826113d0565b602082019050919050565b60006020820190508181036000830152611435816113f9565b9050919050565b7f566f74696e672074696d65206973206f76657221000000000000000000000000600082015250565b60006114726014836111c0565b915061147d8261143c565b602082019050919050565b600060208201905081810360008301526114a181611465565b9050919050565b7f43616e20766f7465206f6e6c79206f6e63652100000000000000000000000000600082015250565b60006114de6013836111c0565b91506114e9826114a8565b602082019050919050565b6000602082019050818103600083015261150d816114d1565b9050919050565b600061151f82610c72565b91507fffffffffffffffffffffffffffffffffffffffffffffffffffffffffffffffff8203611551576115506112a9565b5b600182019050919050565b7f4f776e61626c653a206e6577206f776e657220697320746865207a65726f206160008201527f6464726573730000000000000000000000000000000000000000000000000000602082015250565b60006115b86026836111c0565b91506115c38261155c565b604082019050919050565b600060208201905081810360008301526115e7816115ab565b9050919050565b7f4e487b7100000000000000000000000000000000000000000000000000000000600052602260045260246000fd5b6000600282049050600182168061163557607f821691505b602082108103611648576116476115ee565b5b5091905056fea2646970667358221220360998587b76652a8a818fd1d83b3a1800c6b572ed07ce36013aa9773378283964736f6c634300080e0033",
  "immutableReferences": {},
  "source": "// SPDX-License-Identifier: MIT\npragma solidity ^0.8.14;\n\nimport \"@openzeppelin/contracts/access/Ownable.sol\";\n\ncontract Voting is Ownable {\n    struct PoliticalParty {\n        string name;\n        string symbol;\n    }\n\n    PoliticalParty[] politicalParties;\n    uint32 public startTime;\n    uint32 public endTime;\n    mapping(uint8 => uint256) partyVoteCount;\n    mapping(address => uint8) citizenVotedParty;\n\n    constructor(uint32 _startTime, uint32 _endTime) {\n        startTime = _startTime;\n        endTime = _endTime;\n    }\n\n    modifier onlyOnce {\n        require(getCitizenVote() == 0, \"Can vote only once!\");\n        _;\n    }\n\n    modifier whileVoting {\n        require(block.timestamp >= startTime, \"Voting has not started!\");\n        require(block.timestamp < endTime, \"Voting time is over!\");\n        _;\n    }\n\n    modifier validPartyId(uint8 _partyId) {\n        require(_partyId > 0 && _partyId <= politicalParties.length, \"Party ID is invalid!\");\n        _;\n    }\n\n    modifier votingComplete {\n        require(block.timestamp >= startTime, \"Voting has not started!\");\n        require(block.timestamp >= endTime, \"Voting time is not over!\");\n        _;\n    }\n\n    function getCitizenVote() public view returns (uint8) {\n        return citizenVotedParty[msg.sender];\n    }\n\n    function getResults() external view votingComplete returns (uint256[] memory) {\n        uint256[] memory results = new uint256[](politicalParties.length);\n\n        for (uint8 i = 1; i <= politicalParties.length; i++)\n            results[i-1] = partyVoteCount[i];\n\n        return results;\n    }\n\n    function getPoliticalParties() external view returns (PoliticalParty[] memory) {\n        PoliticalParty[] memory parties = new PoliticalParty[](politicalParties.length);\n\n        for (uint8 i = 0; i < politicalParties.length; i++)\n            parties[i] = politicalParties[i];\n\n        return parties;\n    }\n\n    function addParty(\n        string memory _name,\n        string memory _symbol\n    )\n        external\n        onlyOwner\n    {\n        PoliticalParty memory party = PoliticalParty(_name, _symbol);\n        politicalParties.push(party);\n    }\n\n    function vote(uint8 _partyId) external validPartyId(_partyId) whileVoting onlyOnce {\n        partyVoteCount[_partyId]++;\n        citizenVotedParty[msg.sender] = _partyId;\n    }\n}",
  "sourcePath": "/home/zaimabbasi/Developer/smart-voting-machine/src/contracts/Voting.sol",
  "compiler": {
    "name": "solc",
    "version": "0.8.14+commit.80d49f37.Emscripten.clang"
  },
  "schemaVersion": "3.4.4",
  "updatedAt": "2022-06-28T12:59:07.250Z",
  "networkType": "ethereum",
  "devdoc": {
    "kind": "dev",
    "methods": {
      "owner()": {
        "details": "Returns the address of the current owner."
      },
      "renounceOwnership()": {
        "details": "Leaves the contract without owner. It will not be possible to call `onlyOwner` functions anymore. Can only be called by the current owner. NOTE: Renouncing ownership will leave the contract without an owner, thereby removing any functionality that is only available to the owner."
      },
      "transferOwnership(address)": {
        "details": "Transfers ownership of the contract to a new account (`newOwner`). Can only be called by the current owner."
      }
    },
    "version": 1
  },
  "userdoc": {
    "kind": "user",
    "methods": {},
    "version": 1
  }
}