{
  "contractName": "Voting",
  "abi": [
    {
      "inputs": [
        {
          "internalType": "uint256",
          "name": "_startTime",
          "type": "uint256"
        },
        {
          "internalType": "uint256",
          "name": "_endTime",
          "type": "uint256"
        }
      ],
      "stateMutability": "nonpayable",
      "type": "constructor"
    },
    {
      "anonymous": false,
      "inputs": [
        {
          "indexed": true,
          "internalType": "address",
          "name": "previousOwner",
          "type": "address"
        },
        {
          "indexed": true,
          "internalType": "address",
          "name": "newOwner",
          "type": "address"
        }
      ],
      "name": "OwnershipTransferred",
      "type": "event"
    },
    {
      "inputs": [],
      "name": "endTime",
      "outputs": [
        {
          "internalType": "uint256",
          "name": "",
          "type": "uint256"
        }
      ],
      "stateMutability": "view",
      "type": "function",
      "constant": true
    },
    {
      "inputs": [],
      "name": "owner",
      "outputs": [
        {
          "internalType": "address",
          "name": "",
          "type": "address"
        }
      ],
      "stateMutability": "view",
      "type": "function",
      "constant": true
    },
    {
      "inputs": [
        {
          "internalType": "uint256",
          "name": "",
          "type": "uint256"
        }
      ],
      "name": "politicalParties",
      "outputs": [
        {
          "internalType": "string",
          "name": "name",
          "type": "string"
        },
        {
          "internalType": "string",
          "name": "symbol",
          "type": "string"
        },
        {
          "internalType": "string",
          "name": "flagUrl",
          "type": "string"
        },
        {
          "internalType": "string",
          "name": "imageUrl",
          "type": "string"
        }
      ],
      "stateMutability": "view",
      "type": "function",
      "constant": true
    },
    {
      "inputs": [],
      "name": "renounceOwnership",
      "outputs": [],
      "stateMutability": "nonpayable",
      "type": "function"
    },
    {
      "inputs": [],
      "name": "startTime",
      "outputs": [
        {
          "internalType": "uint256",
          "name": "",
          "type": "uint256"
        }
      ],
      "stateMutability": "view",
      "type": "function",
      "constant": true
    },
    {
      "inputs": [
        {
          "internalType": "address",
          "name": "newOwner",
          "type": "address"
        }
      ],
      "name": "transferOwnership",
      "outputs": [],
      "stateMutability": "nonpayable",
      "type": "function"
    },
    {
      "inputs": [],
      "name": "viewResults",
      "outputs": [
        {
          "internalType": "uint256[]",
          "name": "",
          "type": "uint256[]"
        }
      ],
      "stateMutability": "view",
      "type": "function",
      "constant": true
    },
    {
      "inputs": [
        {
          "internalType": "string",
          "name": "_name",
          "type": "string"
        },
        {
          "internalType": "string",
          "name": "_symbol",
          "type": "string"
        },
        {
          "internalType": "string",
          "name": "_flagUrl",
          "type": "string"
        },
        {
          "internalType": "string",
          "name": "_imageUrl",
          "type": "string"
        }
      ],
      "name": "addParty",
      "outputs": [],
      "stateMutability": "nonpayable",
      "type": "function"
    },
    {
      "inputs": [
        {
          "internalType": "uint256",
          "name": "_partyId",
          "type": "uint256"
        }
      ],
      "name": "vote",
      "outputs": [],
      "stateMutability": "nonpayable",
      "type": "function"
    }
  ],
  "bytecode": "0x60806040523480156200001157600080fd5b506040516200173938038062001739833981810160405281019062000037919062000179565b620000576200004b6200006d60201b60201c565b6200007560201b60201c565b81600281905550806003819055505050620001c0565b600033905090565b60008060009054906101000a900473ffffffffffffffffffffffffffffffffffffffff169050816000806101000a81548173ffffffffffffffffffffffffffffffffffffffff021916908373ffffffffffffffffffffffffffffffffffffffff1602179055508173ffffffffffffffffffffffffffffffffffffffff168173ffffffffffffffffffffffffffffffffffffffff167f8be0079c531659141344cd1fd0a4f28419497f9722a3daafe3b4186f6b6457e060405160405180910390a35050565b600080fd5b6000819050919050565b62000153816200013e565b81146200015f57600080fd5b50565b600081519050620001738162000148565b92915050565b6000806040838503121562000193576200019262000139565b5b6000620001a38582860162000162565b9250506020620001b68582860162000162565b9150509250929050565b61156980620001d06000396000f3fe608060405234801561001057600080fd5b50600436106100935760003560e01c806378e979251161006657806378e97925146100f857806380f22892146101165780638da5cb5b14610149578063d55ab09514610167578063f2fde38b1461018557610093565b80630121b93f14610098578063154abdb7146100b45780633197cbb6146100d0578063715018a6146100ee575b600080fd5b6100b260048036038101906100ad9190610c21565b6101a1565b005b6100ce60048036038101906100c99190610d94565b6103ce565b005b6100d8610518565b6040516100e59190610e7a565b60405180910390f35b6100f661051e565b005b6101006105a6565b60405161010d9190610e7a565b60405180910390f35b610130600480360381019061012b9190610c21565b6105ac565b6040516101409493929190610f1d565b60405180910390f35b61015161080c565b60405161015e9190610fbf565b60405180910390f35b61016f610835565b60405161017c9190611098565b60405180910390f35b61019f600480360381019061019a91906110e6565b610971565b005b8060018054905081106101e9576040517f08c379a00000000000000000000000000000000000000000000000000000000081526004016101e09061115f565b60405180910390fd5b60025442101561022e576040517f08c379a0000000000000000000000000000000000000000000000000000000008152600401610225906111cb565b60405180910390fd5b6003544210610272576040517f08c379a000000000000000000000000000000000000000000000000000000000815260040161026990611237565b60405180910390fd5b60001515600560003373ffffffffffffffffffffffffffffffffffffffff1673ffffffffffffffffffffffffffffffffffffffff16815260200190815260200160002060009054906101000a900460ff16151514610305576040517f08c379a00000000000000000000000000000000000000000000000000000000081526004016102fc906112a3565b60405180910390fd5b600460008381526020019081526020016000206000815480929190610329906112f2565b919050555081600660003373ffffffffffffffffffffffffffffffffffffffff1673ffffffffffffffffffffffffffffffffffffffff168152602001908152602001600020819055506001600560003373ffffffffffffffffffffffffffffffffffffffff1673ffffffffffffffffffffffffffffffffffffffff16815260200190815260200160002060006101000a81548160ff0219169083151502179055505050565b6103d6610a68565b73ffffffffffffffffffffffffffffffffffffffff166103f461080c565b73ffffffffffffffffffffffffffffffffffffffff161461044a576040517f08c379a000000000000000000000000000000000000000000000000000000000815260040161044190611386565b60405180910390fd5b60006040518060800160405280868152602001858152602001848152602001838152509050600181908060018154018082558091505060019003906000526020600020906004020160009091909190915060008201518160000190805190602001906104b7929190610b34565b5060208201518160010190805190602001906104d4929190610b34565b5060408201518160020190805190602001906104f1929190610b34565b50606082015181600301908051906020019061050e929190610b34565b5050505050505050565b60035481565b610526610a68565b73ffffffffffffffffffffffffffffffffffffffff1661054461080c565b73ffffffffffffffffffffffffffffffffffffffff161461059a576040517f08c379a000000000000000000000000000000000000000000000000000000000815260040161059190611386565b60405180910390fd5b6105a46000610a70565b565b60025481565b600181815481106105bc57600080fd5b90600052602060002090600402016000915090508060000180546105df906113d5565b80601f016020809104026020016040519081016040528092919081815260200182805461060b906113d5565b80156106585780601f1061062d57610100808354040283529160200191610658565b820191906000526020600020905b81548152906001019060200180831161063b57829003601f168201915b50505050509080600101805461066d906113d5565b80601f0160208091040260200160405190810160405280929190818152602001828054610699906113d5565b80156106e65780601f106106bb576101008083540402835291602001916106e6565b820191906000526020600020905b8154815290600101906020018083116106c957829003601f168201915b5050505050908060020180546106fb906113d5565b80601f0160208091040260200160405190810160405280929190818152602001828054610727906113d5565b80156107745780601f1061074957610100808354040283529160200191610774565b820191906000526020600020905b81548152906001019060200180831161075757829003601f168201915b505050505090806003018054610789906113d5565b80601f01602080910402602001604051908101604052809291908181526020018280546107b5906113d5565b80156108025780601f106107d757610100808354040283529160200191610802565b820191906000526020600020905b8154815290600101906020018083116107e557829003601f168201915b5050505050905084565b60008060009054906101000a900473ffffffffffffffffffffffffffffffffffffffff16905090565b606060025442101561087c576040517f08c379a0000000000000000000000000000000000000000000000000000000008152600401610873906111cb565b60405180910390fd5b6003544210156108c1576040517f08c379a00000000000000000000000000000000000000000000000000000000081526004016108b890611452565b60405180910390fd5b600060018054905067ffffffffffffffff8111156108e2576108e1610c69565b5b6040519080825280602002602001820160405280156109105781602001602082028036833780820191505090505b50905060005b60018054905081101561096957600460008281526020019081526020016000205482828151811061094a57610949611472565b5b6020026020010181815250508080610961906112f2565b915050610916565b508091505090565b610979610a68565b73ffffffffffffffffffffffffffffffffffffffff1661099761080c565b73ffffffffffffffffffffffffffffffffffffffff16146109ed576040517f08c379a00000000000000000000000000000000000000000000000000000000081526004016109e490611386565b60405180910390fd5b600073ffffffffffffffffffffffffffffffffffffffff168173ffffffffffffffffffffffffffffffffffffffff1603610a5c576040517f08c379a0000000000000000000000000000000000000000000000000000000008152600401610a5390611513565b60405180910390fd5b610a6581610a70565b50565b600033905090565b60008060009054906101000a900473ffffffffffffffffffffffffffffffffffffffff169050816000806101000a81548173ffffffffffffffffffffffffffffffffffffffff021916908373ffffffffffffffffffffffffffffffffffffffff1602179055508173ffffffffffffffffffffffffffffffffffffffff168173ffffffffffffffffffffffffffffffffffffffff167f8be0079c531659141344cd1fd0a4f28419497f9722a3daafe3b4186f6b6457e060405160405180910390a35050565b828054610b40906113d5565b90600052602060002090601f016020900481019282610b625760008555610ba9565b82601f10610b7b57805160ff1916838001178555610ba9565b82800160010185558215610ba9579182015b82811115610ba8578251825591602001919060010190610b8d565b5b509050610bb69190610bba565b5090565b5b80821115610bd3576000816000905550600101610bbb565b5090565b6000604051905090565b600080fd5b600080fd5b6000819050919050565b610bfe81610beb565b8114610c0957600080fd5b50565b600081359050610c1b81610bf5565b92915050565b600060208284031215610c3757610c36610be1565b5b6000610c4584828501610c0c565b91505092915050565b600080fd5b600080fd5b6000601f19601f8301169050919050565b7f4e487b7100000000000000000000000000000000000000000000000000000000600052604160045260246000fd5b610ca182610c58565b810181811067ffffffffffffffff82111715610cc057610cbf610c69565b5b80604052505050565b6000610cd3610bd7565b9050610cdf8282610c98565b919050565b600067ffffffffffffffff821115610cff57610cfe610c69565b5b610d0882610c58565b9050602081019050919050565b82818337600083830152505050565b6000610d37610d3284610ce4565b610cc9565b905082815260208101848484011115610d5357610d52610c53565b5b610d5e848285610d15565b509392505050565b600082601f830112610d7b57610d7a610c4e565b5b8135610d8b848260208601610d24565b91505092915050565b60008060008060808587031215610dae57610dad610be1565b5b600085013567ffffffffffffffff811115610dcc57610dcb610be6565b5b610dd887828801610d66565b945050602085013567ffffffffffffffff811115610df957610df8610be6565b5b610e0587828801610d66565b935050604085013567ffffffffffffffff811115610e2657610e25610be6565b5b610e3287828801610d66565b925050606085013567ffffffffffffffff811115610e5357610e52610be6565b5b610e5f87828801610d66565b91505092959194509250565b610e7481610beb565b82525050565b6000602082019050610e8f6000830184610e6b565b92915050565b600081519050919050565b600082825260208201905092915050565b60005b83811015610ecf578082015181840152602081019050610eb4565b83811115610ede576000848401525b50505050565b6000610eef82610e95565b610ef98185610ea0565b9350610f09818560208601610eb1565b610f1281610c58565b840191505092915050565b60006080820190508181036000830152610f378187610ee4565b90508181036020830152610f4b8186610ee4565b90508181036040830152610f5f8185610ee4565b90508181036060830152610f738184610ee4565b905095945050505050565b600073ffffffffffffffffffffffffffffffffffffffff82169050919050565b6000610fa982610f7e565b9050919050565b610fb981610f9e565b82525050565b6000602082019050610fd46000830184610fb0565b92915050565b600081519050919050565b600082825260208201905092915050565b6000819050602082019050919050565b61100f81610beb565b82525050565b60006110218383611006565b60208301905092915050565b6000602082019050919050565b600061104582610fda565b61104f8185610fe5565b935061105a83610ff6565b8060005b8381101561108b5781516110728882611015565b975061107d8361102d565b92505060018101905061105e565b5085935050505092915050565b600060208201905081810360008301526110b2818461103a565b905092915050565b6110c381610f9e565b81146110ce57600080fd5b50565b6000813590506110e0816110ba565b92915050565b6000602082840312156110fc576110fb610be1565b5b600061110a848285016110d1565b91505092915050565b7f506172747920494420697320696e76616c696421000000000000000000000000600082015250565b6000611149601483610ea0565b915061115482611113565b602082019050919050565b600060208201905081810360008301526111788161113c565b9050919050565b7f566f74696e6720686173206e6f74207374617274656421000000000000000000600082015250565b60006111b5601783610ea0565b91506111c08261117f565b602082019050919050565b600060208201905081810360008301526111e4816111a8565b9050919050565b7f566f74696e672074696d65206973206f76657221000000000000000000000000600082015250565b6000611221601483610ea0565b915061122c826111eb565b602082019050919050565b6000602082019050818103600083015261125081611214565b9050919050565b7f43616e20766f7465206f6e6c79206f6e63652100000000000000000000000000600082015250565b600061128d601383610ea0565b915061129882611257565b602082019050919050565b600060208201905081810360008301526112bc81611280565b9050919050565b7f4e487b7100000000000000000000000000000000000000000000000000000000600052601160045260246000fd5b60006112fd82610beb565b91507fffffffffffffffffffffffffffffffffffffffffffffffffffffffffffffffff820361132f5761132e6112c3565b5b600182019050919050565b7f4f776e61626c653a2063616c6c6572206973206e6f7420746865206f776e6572600082015250565b6000611370602083610ea0565b915061137b8261133a565b602082019050919050565b6000602082019050818103600083015261139f81611363565b9050919050565b7f4e487b7100000000000000000000000000000000000000000000000000000000600052602260045260246000fd5b600060028204905060018216806113ed57607f821691505b602082108103611400576113ff6113a6565b5b50919050565b7f566f74696e672074696d65206973206e6f74206f766572210000000000000000600082015250565b600061143c601883610ea0565b915061144782611406565b602082019050919050565b6000602082019050818103600083015261146b8161142f565b9050919050565b7f4e487b7100000000000000000000000000000000000000000000000000000000600052603260045260246000fd5b7f4f776e61626c653a206e6577206f776e657220697320746865207a65726f206160008201527f6464726573730000000000000000000000000000000000000000000000000000602082015250565b60006114fd602683610ea0565b9150611508826114a1565b604082019050919050565b6000602082019050818103600083015261152c816114f0565b905091905056fea2646970667358221220c3e344036f5411da93ce4e7abaa570a6bb5b327a4c968bcf56d6872cc089e15364736f6c634300080e0033",
  "immutableReferences": {},
  "source": "// SPDX-License-Identifier: MIT\npragma solidity ^0.8.14;\n\nimport \"@openzeppelin/contracts/access/Ownable.sol\";\n\ncontract Voting is Ownable {\n    struct PoliticalParty {\n        string name;\n        string symbol;\n        string flagUrl;\n        string imageUrl;\n    }\n\n    PoliticalParty[] public politicalParties;\n    uint256 public startTime;\n    uint256 public endTime;\n    mapping(uint256 => uint256) partyVoteCount;\n    mapping(address => bool) citizenVoted;\n    mapping(address => uint256) citizenVotedParty;\n\n    constructor(uint256 _startTime, uint256 _endTime) {\n        startTime = _startTime;\n        endTime = _endTime;\n    }\n\n    modifier onlyOnce {\n        require(citizenVoted[msg.sender] == false, \"Can vote only once!\");\n        _;\n    }\n\n    modifier whileVoting {\n        require(block.timestamp >= startTime, \"Voting has not started!\");\n        require(block.timestamp < endTime, \"Voting time is over!\");\n        _;\n    }\n\n    modifier validPartyId(uint256 _partyId) {\n        require(_partyId < politicalParties.length, \"Party ID is invalid!\");\n        _;\n    }\n\n    modifier votingComplete {\n        require(block.timestamp >= startTime, \"Voting has not started!\");\n        require(block.timestamp >= endTime, \"Voting time is not over!\");\n        _;\n    }\n\n    function viewResults() external view votingComplete returns (uint256[] memory) {\n        uint256[] memory results = new uint256[](politicalParties.length);\n\n        for (uint256 i = 0; i < politicalParties.length; i++)\n            results[i] = partyVoteCount[i];\n\n        return results;\n    }\n\n    function addParty(\n        string memory _name,\n        string memory _symbol,\n        string memory _flagUrl,\n        string memory _imageUrl\n    )\n        external\n        onlyOwner\n    {\n        PoliticalParty memory party = PoliticalParty(_name, _symbol, _flagUrl, _imageUrl);\n        politicalParties.push(party);\n    }\n\n    function vote(uint256 _partyId) external validPartyId(_partyId) whileVoting onlyOnce {\n        partyVoteCount[_partyId]++;\n        citizenVotedParty[msg.sender] = _partyId;\n        citizenVoted[msg.sender] = true;\n    }\n}",
  "sourcePath": "/home/zaimabbasi/Developer/smart-voting-machine/src/contracts/Voting.sol",
  "compiler": {
    "name": "solc",
    "version": "0.8.14+commit.80d49f37.Emscripten.clang"
  },
  "schemaVersion": "3.4.4",
  "updatedAt": "2022-05-26T03:03:23.969Z",
  "networkType": "ethereum",
  "devdoc": {
    "kind": "dev",
    "methods": {
      "owner()": {
        "details": "Returns the address of the current owner."
      },
      "renounceOwnership()": {
        "details": "Leaves the contract without owner. It will not be possible to call `onlyOwner` functions anymore. Can only be called by the current owner. NOTE: Renouncing ownership will leave the contract without an owner, thereby removing any functionality that is only available to the owner."
      },
      "transferOwnership(address)": {
        "details": "Transfers ownership of the contract to a new account (`newOwner`). Can only be called by the current owner."
      }
    },
    "version": 1
  },
  "userdoc": {
    "kind": "user",
    "methods": {},
    "version": 1
  }
}